:020000040800F2
:1000000000400020E1060008A9060008AF0600082D
:1000100000000000000000000000000000000000E0
:10002000000000000000000000000000B50600080D
:100030000000000000000000BF060008C90600081C
:1000400031070008310700083107000831070008B0
:1000500031070008310700083107000831070008A0
:100060003107000831070008310700083107000890
:100070003107000831070008310700083107000880
:100080003107000831070008310700083107000870
:100090003107000831070008310700083107000860
:1000A0003107000831070008310700083107000850
:1000B0003107000831070008310700083107000840
:1000C00010B5064C2378002B07D1054B002B02D02E
:1000D000044800E000BF0123237010BD140000207D
:1000E0000000000014240008044B10B5002B03D0BE
:1000F0000349044800E000BF10BDC04600000000F6
:100100001800002014240008002243088B4274D3F6
:1001100003098B425FD3030A8B4244D3030B8B4208
:1001200028D3030C8B420DD3FF22090212BA030C11
:100130008B4202D31212090265D0030B8B4219D3F2
:1001400000E0090AC30B8B4201D3CB03C01A524112
:10015000830B8B4201D38B03C01A5241430B8B425A
:1001600001D34B03C01A5241030B8B4201D30B0343
:10017000C01A5241C30A8B4201D3CB02C01A52416A
:10018000830A8B4201D38B02C01A5241430A8B422D
:1001900001D34B02C01A5241030A8B4201D30B0216
:1001A000C01A5241CDD2C3098B4201D3CB01C01A30
:1001B000524183098B4201D38B01C01A524143093A
:1001C0008B4201D34B01C01A524103098B4201D328
:1001D0000B01C01A5241C3088B4201D3CB00C01A95
:1001E000524183088B4201D38B00C01A524143080D
:1001F0008B4201D34B00C01A5241411A00D2014632
:10020000524110467047FFE701B5002000F006F8A4
:1002100002BDC0460029F7D076E770477047C04658
:1002200090B599B000AF2C243B19180034231A0064
:10023000002102F0E7F81C23FB18180010231A0015
:10024000002102F0DFF83B0018001C231A000021F7
:1002500002F0D8F821007B1822221A607B180122B4
:10026000DA607B1801221A627B1810221A617B184F
:1002700000225A627B18180000F0D2FE031E01D043
:1002800000F014F91C217B1807221A607B18032246
:100290005A607B1800229A607B180022DA607B1873
:1002A0000121180001F042FA031E01D000F0FEF80F
:1002B0003B0022221A603B000022DA603B00002251
:1002C0001A613B00180000F0ADFD031E01D000F0E4
:1002D000EDF8C046BD4619B090BD000080B500AF36
:1002E0001B4B1C4A1A601A4B1B4A5A60184B0022BF
:1002F0009A60174B0122DA60154B00221A61144BE9
:1003000000225A61124B00229A61114B0022DA61DD
:100310000F4B00221A620E4B180000F0EDFC031E7A
:1003200001D000F0C3F80A4B0021180000F04CFC8B
:10033000031E01D000F0BAF8054B0021180000F0B0
:100340008FFC031E01D000F0B1F8C046BD4680BD51
:1003500030000020005400400E09002080B500AF9E
:10036000144B154A1A60134BE12252025A60114B8A
:1003700000229A600F4B0022DA600E4B00221A61B5
:100380000C4B0C225A610B4B00229A61094B002244
:10039000DA61084B00221A62064B00225A62054BB2
:1003A000180001F03DFB031E01D000F07FF8C046AD
:1003B000BD4680BD7C0000200044004090B58BB05D
:1003C00000AF14243B19180014231A00002102F076
:1003D00019F8344B5A69334B802109030A435A6197
:1003E000304B5A6980231B0313403B613B692D4B03
:1003F0005A692C4B8021C9030A435A61294B5A6917
:100400008023DB031340FB60FB68264B5A69254BB6
:10041000802189020A435A61224B5A6980239B0238
:100420001340BB60BB681F4B5A691E4B8021C90239
:100430000A435A611B4B5A698023DB0213407B60DD
:100440007B689023DB0500222021180000F09EFB32
:100450003B19802292011A603B19842292035A6050
:100460003B1900229A603B190F4A1900100000F056
:1004700015FA21007B1820221A607B1801225A608D
:100480007B1800229A607B180022DA607A18902389
:10049000DB051100180000F001FAC046BD460BB0A4
:1004A00090BDC046001002400008004880B500AF73
:1004B00072B6C046FEE7000080B500AF01F0F6FE60
:1004C000FFF7AEFEFFF77AFFFFF748FFFFF706FFE3
:1004D000124B180001F04EFF9023DB050022202173
:1004E000180000F053FB0E4B19680E4864231122CC
:1004F00001F0EAFA094B180001F03CFF9023DB05FC
:1005000001222021180000F041FB074B1968054823
:100510006423102201F0D8FADAE7C04688130000FD
:10052000000000207C0000200400002080B582B084
:1005300000AF0F4B9A690E4B01210A439A610C4B95
:100540009B69012213407B607B68094BDA69084B89
:10055000802149050A43DA61054BDA6980235B058E
:1005600013403B603B68C046BD4602B080BDC046FC
:100570000010024090B58BB000AF786014243B1996
:10058000180014231A00002101F03CFF7B681B684F
:100590001C4A934231D11C4B5A691B4B8021C90222
:1005A0000A435A61184B5A698023DB0213403B61AE
:1005B0003B6921007B18C0221A607B1812225A6006
:1005C0007B1800229A607B180322DA607B180122D4
:1005D0001A617B180D4A1900100000F05FF90A4BF0
:1005E000DA69094B802189030A43DA61064BDA692B
:1005F00080239B031340FB60FB68C046BD460BB0E5
:1006000090BDC04600540040001002400004004865
:1006100090B58BB000AF786014243B1918001423F8
:100620001A00002101F0EEFE7B681B681C4A934211
:1006300032D11C4BDA691B4B802189020A43DA61F3
:10064000184BDA6980239B0213403B613B69154BD1
:100650005A69144B802189020A435A61114B5A6925
:1006600080239B021340FB60FB6821007B180C2257
:100670001A607B1802225A607B1800229A607B184D
:100680000022DA607B1801221A617A189023DB05B8
:100690001100180000F002F9C046BD460BB090BD35
:1006A000004400400010024080B500AFFEE780B576
:1006B00000AFFEE780B500AFC046BD4680BD80B547
:1006C00000AFC046BD4680BD80B500AF01F036FE2C
:1006D000C046BD4680BD80B500AFC046BD4680BDAA
:1006E0000D4885460D480E490E4A002302E0D458B5
:1006F000C4500433C4188C42F9D30B4A0B4C00236A
:1007000001E013600432A242FBD3FFF7E4FF01F0E3
:1007100055FEFFF7D1FEFEE700400020000000205C
:10072000140000209424000814000020040100207C
:10073000FEE7000090B583B000AF02003960FB1DFA
:100740001A70FB1D1B787F2B28D82F4AFB1D1B78A6
:100750005BB29B08C0339B009B58FA1D12781100B6
:1007600003220A40D200FF2191400A00D2431A40DE
:1007700011003B689B01FF221A40FB1D1B781800EB
:1007800003230340DB009A401F48FB1D1B785BB22C
:100790009B080A43C0339B001A5031E01B4AFB1DE3
:1007A0001B7819000F230B40083B9B0806339B0066
:1007B000D31804331B68FA1D1278110003220A4073
:1007C000D200FF2191400A00D2431A4011003B6839
:1007D0009B01FF221A40FB1D1B78180003230340D6
:1007E000DB009A400948FB1D1B781C000F232340A7
:1007F000083B9B080A4306339B00C31804331A6066
:10080000C046BD4603B090BD00E100E000ED00E051
:1008100080B582B000AF78607B685A1E80235B048D
:100820009A4201D3012310E00A4B7A68013A5A60D8
:1008300001235B4203211800FFF77CFF054B0022D8
:100840009A60044B07221A6000231800BD4602B0CC
:1008500080BDC04610E000E080B584B000AFB96054
:100860007A600F217B18021C1A70BA687B181B78FB
:100870005BB211001800FFF75DFFC046BD4604B033
:1008800080BD80B582B000AF78607B681800FFF74C
:10089000BFFF03001800BD4602B080BD80B586B022
:1008A00000AF7860396000237B6155E13B681B68CD
:1008B00001217A6991400A001340FB60FB68002B1C
:1008C00000D146E13B685B6803221340012B05D051
:1008D0003B685B6803221340022B30D17B689B6826
:1008E0003B617B695B0003229A401300DA433B695A
:1008F00013403B613B68DA687B695B009A401300F8
:100900003A6913433B617B683A699A607B685B682C
:100910003B6101227B699A401300DA433B69134033
:100920003B613B685B681B0901221A407B699A4066
:1009300013003A6913433B617B683A695A603B682C
:100940005B6803221340032B17D07B68DB683B6195
:100950007B695B0003229A401300DA433B69134032
:100960003B613B689A687B695B009A4013003A6977
:1009700013433B617B683A69DA603B685B6803223A
:100980001340022B23D17B69DA087B68083292007E
:10099000D3583B617B69072213409B000F229A408A
:1009A0001300DA433B6913403B613B681A697B697A
:1009B00007210B409B009A4013003A6913433B61A7
:1009C0007B69DA087B68083292003969D1507B680C
:1009D0001B683B617B695B0003229A401300DA438A
:1009E0003B6913403B613B685B6803221A407B69AB
:1009F0005B009A4013003A6913433B617B683A6994
:100A00001A603B685A68C0239B02134000D1A0E0E3
:100A1000574B9A69564B01210A439A61544B9B6983
:100A200001221340BB60BB68524A7B699B080233BA
:100A30009B009B583B617B69032213409B000F2264
:100A40009A401300DA433B6913403B617A68902374
:100A5000DB059A4219D07B68474A934213D07B68E2
:100A6000464A93420DD07B68454A934207D07B6843
:100A7000444A934201D1042308E0052306E00323FE
:100A800004E0022302E0012300E000237A6903214D
:100A90000A40920093403A6913433B6135497B69B0
:100AA0009B0802339B003A695A50374B1B683B61E5
:100AB000FB68DA433B6913403B613B685A6880231B
:100AC0005B02134003D03A69FB6813433B612E4B32
:100AD0003A691A602C4B5B683B61FB68DA433B69FF
:100AE00013403B613B685A6880239B02134003D04C
:100AF0003A69FB6813433B61234B3A695A60224BC6
:100B00009B683B61FB68DA433B6913403B613B6890
:100B10005A6880235B03134003D03A69FB68134390
:100B20003B61194B3A699A60174BDB683B61FB6884
:100B3000DA433B6913403B613B685A6880239B035F
:100B4000134003D03A69FB6813433B610E4B3A698B
:100B5000DA607B6901337B613B681A687B69DA4044
:100B6000131E00D0A2E6C046C046BD4606B080BDFA
:100B70000010024000000140000400480008004846
:100B8000000C0048001000480004014080B582B00D
:100B900000AF786008001100BB1C021C1A807B1C8F
:100BA0000A1C1A707B1C1B78002B04D0BB1C1A88F3
:100BB0007B689A6103E0BB1C1A887B689A62C04616
:100BC000BD4602B080BD000080B582B000AF786045
:100BD00039607B6841229B5CDBB2202B38D17B687B
:100BE00040229B5C012B01D1022332E07B68402232
:100BF000012199547B684122242199547B681B6808
:100C00001A687B681B6801218A431A607B681B682D
:100C10001A687B681B6811490A401A607B681B6868
:100C200019687B681B683A680A431A607B681B680E
:100C30001A687B681B6801210A431A607B6841229D
:100C4000202199547B68402200219954002300E020
:100C500002231800BD4602B080BDC046FFEFFFFF73
:100C600080B584B000AF786039607B6841229B5CBE
:100C7000DBB2202B39D17B6840229B5C012B01D158
:100C8000022333E07B684022012199547B68412292
:100C9000242199547B681B681A687B681B680121B2
:100CA0008A431A607B681B681B68FB60FB68114AFB
:100CB0001340FB603B681B02FA681343FB607B68D0
:100CC0001B68FA681A607B681B681A687B681B6877
:100CD00001210A431A607B684122202199547B68D4
:100CE000402200219954002300E002231800BD4651
:100CF00004B080BDFFF0FFFF80B582B000AF786028
:100D00007B68002B01D1012382E07B6841229B5C40
:100D1000DBB2002B07D17B684022002199547B680D
:100D20001800FFF727FC7B684122242199547B6837
:100D30001B681A687B681B6801218A431A607B68FC
:100D40005A687B681B6834490A401A617B681B68D3
:100D50009A687B681B6831490A409A607B68DB6847
:100D6000012B08D17B689A687B681B688021090287
:100D70000A439A6007E07B689A687B681B68842155
:100D800009020A439A607B68DB68022B04D17B6806
:100D90001B68802212015A607B681B685A687B6856
:100DA0001B681F490A435A607B681B68DA687B68C6
:100DB0001B681A490A40DA607B681A697B685B69BC
:100DC0001A4311007B689B691A027B681B680A43FF
:100DD000DA607B68D9697B681A6A7B681B680A439A
:100DE0001A607B681B681A687B681B6801210A43CC
:100DF0001A607B6800225A647B6841222021995442
:100E00007B6800221A637B684222002199540023E8
:100E10001800BD4602B080BDFFFFFFF0FF7FFFFF5F
:100E20000080000280B586B000AF786000233B618F
:100E30000023FB607B681A6880235B02134000D1AB
:100E40008EE017203B1800221A706E4BDA6980235F
:100E50005B05134010D16B4BDA696A4B8021490561
:100E60000A43DA61674BDA6980235B051340BB6094
:100E7000BB683B1801221A70634B1A6880235B0021
:100E800013401AD1604B1A685F4B802149000A4316
:100E90001A6001F065FA03003B6108E001F060FAB6
:100EA00002003B69D31A642B01D90323A6E0564BF9
:100EB0001A6880235B001340F0D0524B1A6AC0239B
:100EC0009B001340FB60FB68002B34D07B685A68A2
:100ED000C0239B001340FA689A422CD0494B1B6AEE
:100EE0004A4A1340FB60474B1A6A464B802149022D
:100EF0000A431A62434B1A6A424B45490A401A6236
:100F0000404BFA681A62FB680122134013D001F0CB
:100F100027FA03003B6109E001F022FA02003B6975
:100F2000D31A3C4A934201D9032367E0354B1B6A2D
:100F300002221340F0D0334B1B6A344A134019008D
:100F40007B685A682F4B0A431A621723FB181B78D9
:100F5000012B05D12B4BDA692A4B2F490A40DA6164
:100F60007B681B680122134009D0264B1B6B0322B0
:100F7000934319007B689A68224B0A431A637B6883
:100F80001B680222134009D01E4B1B6B234A1340DF
:100F900019007B68DA681B4B0A431A637B681B687D
:100FA0002022134009D0174B1B6B102293431900CA
:100FB0007B681A69134B0A431A637B681A6880239B
:100FC0009B02134009D00F4B1B6B802293431900E7
:100FD0007B689A690B4B0A431A637B681A68802303
:100FE000DB00134009D0074B1B6B402293431900D1
:100FF0007B685A69034B0A431A6300231800BD46F5
:1010000006B080BD0010024000700040FFFCFFFFF2
:10101000FFFFFEFF88130000FFFFFFEFFFFFFCFF55
:1010200080B588B000AF78607B68002B02D10123C7
:1010300000F076FB7B681B680122134000D18EE034
:10104000C54B5B680C221340042B0ED0C24B5B686F
:101050000C221340082B17D1BF4B5A68C0235B02E8
:101060001A4080235B029A420ED1BB4B1A68802340
:101070009B02134000D171E07B685B68002B00D0BD
:101080006CE0012300F04CFB7B685B68012B07D10F
:10109000B14B1A68B04B802149020A431A602FE015
:1010A0007B685B68002B0CD1AB4B1A68AA4BAB4931
:1010B0000A401A60A84B1A68A74BA9490A401A604F
:1010C0001EE07B685B68052B0ED1A34B1A68A24B10
:1010D0008021C9020A431A609F4B1A689E4B8021E7
:1010E00049020A431A600BE09B4B1A689A4B9B49D2
:1010F0000A401A60984B1A68974B99490A401A603F
:101100007B685B68002B14D001F02AF90300BB61F7
:1011100008E001F025F90200BB69D31A642B01D95C
:101120000323FDE28C4B1A6880239B021340F0D00E
:1011300015E001F015F90300BB6108E001F010F9BA
:101140000200BB69D31A642B01D90323E8E2824B66
:101150001A6880239B021340F0D100E0C0467B68F0
:101160001B680222134000D16CE07B4B5B680C22B1
:1011700013400ED0784B5B680C221340082B1FD114
:10118000754B5A68C0235B021A4080231B029A42A7
:1011900016D1714B1B680222134005D07B68DB68B7
:1011A000012B01D00123BBE26B4B1B68F822934358
:1011B00019007B681B69DA00674B0A431A6041E03B
:1011C0007B68DB68002B24D0634B1A68624B0121DB
:1011D0000A431A6001F0C4F80300BB6108E001F0A3
:1011E000BFF80200BB69D31A022B01D9032397E28F
:1011F000594B1B6802221340F1D0574B1B68F82251
:10120000934319007B681B69DA00534B0A431A6049
:1012100018E0514B1A68504B01218A431A6001F0C3
:101220009FF80300BB6108E001F09AF80200BB6977
:10123000D31A022B01D9032372E2474B1B68022207
:101240001340F1D17B681B680822134036D07B68BD
:10125000DB69002B19D0404B5A6A3F4B01210A43EE
:101260005A6201F07DF80300BB6108E001F078F8F4
:101270000200BB69D31A022B01D9032350E2364B7B
:101280005B6A02221340F1D018E0334B5A6A324BAA
:1012900001218A435A6201F063F80300BB6108E050
:1012A00001F05EF80200BB69D31A022B01D90323B7
:1012B00036E2294B5B6A02221340F1D17B681B683E
:1012C0000422134000D1B5E01F203B1800221A7001
:1012D000214BDA6980235B05134010D11E4BDA697C
:1012E0001D4B802149050A43DA611B4BDA698023D3
:1012F0005B051340FB60FB683B1801221A70194B19
:101300001A6880235B0013401AD1164B1A68154BDC
:10131000802149000A431A6001F022F80300BB61F2
:1013200008E001F01DF80200BB69D31A642B01D953
:101330000323F5E10B4B1A6880235B001340F0D0C8
:101340007B689B68012B0FD1034B1A6A024B01216A
:101350000A431A6236E0C04600100240FFFFFEFF5B
:10136000FFFFFBFF007000407B689B68002B0CD1E7
:10137000CA4B1A6AC94B01218A431A62C74B1A6ABF
:10138000C64B04218A431A621CE07B689B68052BCC
:101390000CD1C24B1A6AC14B04210A431A62BF4BDB
:1013A0001A6ABE4B01210A431A620BE0BB4B1A6A50
:1013B000BA4B01218A431A62B84B1A6AB74B04210F
:1013C0008A431A627B689B68002B14D000F0C8FF28
:1013D0000300BB6109E000F0C3FF0200BB69D31A40
:1013E000AF4A934201D903239AE1AC4B1B6A022214
:1013F0001340F0D013E000F0B3FF0300BB6109E03D
:1014000000F0AEFF0200BB69D31AA54A934201D98E
:10141000032385E1A14B1B6A02221340F0D11F2355
:10142000FB181B78012B05D19C4BDA699B4B9D491E
:101430000A40DA617B681B681022134063D07B6826
:101440005B69012B2AD1954B5A6B944B04210A43BB
:101450005A63924B5A6B914B01210A435A6300F035
:101460007FFF0300BB6108E000F07AFF0200BB6968
:10147000D31A022B01D9032352E1884B5B6B022262
:101480001340F1D0854B5B6BF822934319007B68C6
:101490009B69DA00814B0A435A6334E07B685B69DD
:1014A000053311D17D4B5A6B7C4B04218A435A631F
:1014B0007A4B5B6BF822934319007B689B69DA00D7
:1014C000764B0A435A631EE0744B5A6B734B0421EC
:1014D0000A435A63714B5A6B704B01218A435A631A
:1014E00000F03EFF0300BB6108E000F039FF02009E
:1014F000BB69D31A022B01D9032311E1674B5B6B44
:1015000002221340F1D17B681B68202213405CD07B
:10151000624B5B680C2213400C2B0ED05F4B5B6858
:101520000C221340082B14D15C4B5A68C0235B0279
:101530001A40C0235B029A420BD1584B5A6B80234E
:101540005B02134040D07B681B6A012B3CD0012317
:10155000E6E07B681B6A002B1BD0504B5A6B4F4B4D
:10156000802149020A435A6300F0FAFE0300BB617E
:1015700008E000F0F5FE0200BB69D31A022B01D986
:101580000323CDE0454B5A6B80235B021340F0D020
:101590001BE0424B5A6B414B43490A405A6300F0EF
:1015A000DFFE0300BB6108E000F0DAFE0200BB6969
:1015B000D31A022B01D90323B2E0384B5A6B802394
:1015C0005B021340F0D100E0C0467B685B6A002BF1
:1015D00000D1A4E0314B5B680C221340082B00D1F2
:1015E00078E07B685B6A022B4CD12C4B1A682B4B42
:1015F0002E490A401A6000F0B3FE0300BB6108E008
:1016000000F0AEFE0200BB69D31A022B01D90323FE
:1016100086E0224B1A6880239B041340F0D11F4BB5
:10162000DB6A0F22934319007B681A6B1B4B0A433A
:10163000DA621A4B5B681E4A134019007B68DA6A4B
:101640007B689B6A1A43154B0A435A60134B1A680E
:10165000124B802149040A431A6000F081FE030006
:10166000BB6108E000F07CFE0200BB69D31A022BCC
:1016700001D9032354E0094B1A6880239B041340CB
:10168000F0D04CE0054B1A68044B08490A401A6038
:1016900000F066FE0300BB6115E0C046001002408A
:1016A00088130000FFFFFFEFFFFFFEFFFFFFFFFEBD
:1016B000FF7FC2FF00F054FE0200BB69D31A022B69
:1016C00001D903232CE0184B1A6880239B04134094
:1016D000F0D124E07B685B6A012B01D101231FE07C
:1016E000114B5B687B61104BDB6A3B617A69C023FD
:1016F0005B021A407B689B6A9A420ED13B690F22BB
:101700001A407B681B6B9A4207D17A69F0239B03CE
:101710001A407B68DB6A9A4201D0012300E0002373
:101720001800BD4608B080BD0010024080B584B0EE
:1017300000AF786039607B68002B01D10123BFE0E6
:10174000614B1B68012213403A689A4211D95E4BE3
:101750001B680122934319005B4B3A680A431A60E5
:10176000594B1B68012213403A689A4201D0012369
:10177000A6E07B681B680222134015D07B681B68BB
:101780000422134006D0514B5A68504BE021C90047
:101790000A435A604D4B5B68F022934319007B6803
:1017A0009A684A4B0A435A607B681B6801221340BF
:1017B0004CD07B685B68012B07D1444B1A688023AF
:1017C0009B02134020D101237AE07B685B68022BE7
:1017D00007D13E4B1A6880239B04134014D1012388
:1017E0006EE07B685B68032B07D1384B5A6B802314
:1017F0005B02134008D1012362E0344B1B680222D4
:10180000134001D101235BE0304B5B68032293431B
:1018100019007B685A682D4B0A435A6000F0A0FDFE
:101820000300FB6009E000F09BFD0200FB68D31A97
:10183000274A934201D9032342E0244B5B680C22E0
:101840001A407B685B689B009A42ECD11E4B1B6878
:10185000012213403A689A4211D21B4B1B680122A5
:1018600093431900184B3A680A431A60164B1B68D9
:10187000012213403A689A4201D0012320E07B689C
:101880001B680422134009D0104B5B68114A1340B7
:1018900019007B68DA680D4B0A435A6000F020F8A3
:1018A00001000A4B5B681B090F2213400A4AD35CF4
:1018B0000A00DA40094B1A60002000F00BFD0023FB
:1018C0001800BD4604B080BD002002400010024058
:1018D00088130000FFF8FFFF7424000808000020B0
:1018E00090B58FB000AF1423FB18384A13CA13C346
:1018F00012681A603B1D364A13CA13C312681A6075
:101900000023FB620023BB6200237B6300237B6216
:1019100000233B632F4B5B68FB62FB6A0C22134086
:101920000C2B47D049D8042B02D0082B03D044E01D
:10193000294B3B6344E0FB6A9B0C0F2213401422AB
:10194000BA18D35C7B62234BDB6A0F2213403A1D2B
:10195000D35CBB62FA6AC0235B021A4080235B023D
:101960009A4209D1B96A1C48FEF7CEFB03001A005F
:101970007B6A53437B631AE0FA6AC0235B021A4016
:10198000C0235B029A4209D1B96A1448FEF7BCFB36
:1019900003001A007B6A53437B6308E0B96A0E4870
:1019A000FEF7B2FB03001A007B6A53437B637B6B39
:1019B0003B6305E0094B3B6302E0074B3B63C046DA
:1019C0003B6B1800BD460FB090BDC04654240008C4
:1019D000642400080010024000127A00006CDC024F
:1019E00080B500AF024B1B681800BD4680BDC046E5
:1019F0000800002080B500AFFFF7F2FF0100064BA2
:101A00005B681B0A07221340044AD35CD9400B00D1
:101A10001800BD4680BDC046001002408424000866
:101A200080B582B000AF78607B68002B01D10123C4
:101A300044E07B689B6F002B07D17B6874220021F8
:101A400099547B681800FEF7E3FD7B6824229A67AF
:101A50007B681B681A687B681B6801218A431A60CF
:101A60007B68180000F0DAF80300012B01D1012394
:101A700024E07B685B6A002B03D07B68180000F0D1
:101A800055FA7B681B685A687B681B680D490A40D9
:101A90005A607B681B689A687B681B682A218A43A6
:101AA0009A607B681B681A687B681B6801210A437F
:101AB0001A607B68180000F0EDFA03001800BD46BC
:101AC00002B080BDFFB7FFFF80B58AB002AFF860FB
:101AD000B9603B60BB1D1A80FB689B6F202B00D058
:101AE00096E0BB68002B03D0BB1D1B88002B01D1E7
:101AF00001238EE0FB689A6880235B019A4209D13A
:101B0000FB681B69002B05D1BB680122134001D083
:101B100001237EE0FB6874229B5C012B01D1022330
:101B200077E0FB68742201219954FB688022002130
:101B30009950FB6821229A6700F012FC03007B6138
:101B4000FB68BA1D502112885A52FB68BA1D5221F7
:101B500012885A52FB689A6880235B019A4208D126
:101B6000FB681B69002B04D10023FB61BB68BB61D0
:101B700003E0BB68FB610023BB61FB6874220021AA
:101B800099542DE07A69F8683B68009313000022AD
:101B9000802100F0C7FA031E01D0032339E0FB695E
:101BA000002B0BD1BB691A88FB681B68D205D20DCC
:101BB00092B21A85BB690233BB6108E0FB691A78EF
:101BC000FB681B6892B21A85FB690133FB61FB68F5
:101BD00052229B5A9BB2013B99B2FB685222995206
:101BE000FB6852229B5A9BB2002BCBD17A69F868D2
:101BF0003B68009313000022402100F093FA031E7B
:101C000001D0032305E0FB6820229A67002300E04F
:101C100002231800BD4608B080BD000080B588B022
:101C200000AF78601E23FB1800221A707B689A6848
:101C30007B681B691A437B685B691A437B68DB69B5
:101C400013437B617B681B681B68AF4A1340190014
:101C50007B681B687A690A431A607B681B685B684B
:101C6000AA4A134019007B68DA687B681B680A433C
:101C70005A607B689B697B617B681B6A7A69134346
:101C80007B617B681B689B68A14A134019007B68D5
:101C90001B687A690A439A607B681B689D4A934275
:101CA00027D19D4B1B6B03221340032B0DD01BD858
:101CB000022B14D018D8002B02D0012B0AD013E02D
:101CC0001F23FB1800221A7065E01F23FB18022255
:101CD0001A7060E01F23FB1804221A705BE01F23B8
:101CE000FB1808221A7056E01F23FB1810221A70E6
:101CF00051E07B681B68894A934234D1864B1A6B4A
:101D0000C0239B021340C0229202934217D0C022EC
:101D10009202934222D880229202934219D08022CA
:101D2000920293421AD8002B04D08022520293428E
:101D30000AD013E01F23FB1800221A702BE01F2388
:101D4000FB1802221A7026E01F23FB1804221A70C7
:101D500021E01F23FB1808221A701CE01F23FB1828
:101D600010221A7017E07B681B686D4A934204D1F9
:101D70001F23FB1800221A700DE07B681B68694A5C
:101D8000934204D11F23FB1800221A7003E01F2383
:101D9000FB1810221A707B68DA6980231B029A42B2
:101DA0005DD11F23FB181B78082B15D018DC042BE2
:101DB0000DD015DC002B02D0022B05D010E0FFF770
:101DC00019FE0300BB6112E0574BBB610FE0FFF748
:101DD00087FD0300BB610AE080231B02BB6106E0B4
:101DE0000023BB611E23FB1801221A70C046BB6989
:101DF000002B00D17BE0BB695A007B685B685B0805
:101E0000D2187B685B6819001000FEF77DF90300AB
:101E10009BB23B613B690F2B1CD93A6980235B0263
:101E20009A4217D23B699AB20E203B180F218A437F
:101E30001A803B695B089BB20722134099B23B189A
:101E40003A1812880A431A807B681B683A1812886D
:101E5000DA604CE01E23FB1801221A7047E01F23B2
:101E6000FB181B78082B15D018DC042B0DD015DCC3
:101E7000002B02D0022B05D010E0FFF7BBFD0300C2
:101E8000BB6112E0284BBB610FE0FFF729FD0300A7
:101E9000BB610AE080231B02BB6106E00023BB613B
:101EA0001E23FB1801221A70C046BB69002B1ED0EE
:101EB0007B685B685A08BB69D2187B685B6819004D
:101EC0001000FEF721F903009BB23B613B690F2B29
:101ED00009D93A6980235B029A4204D27B681B6865
:101EE0003A69DA6003E01E23FB1801221A707B684E
:101EF00000225A667B6800229A661E23FB181B7814
:101F00001800BD4608B080BDF369FFEFFFCFFFFFAB
:101F1000FFF4FFFF00380140001002400044004081
:101F200000480040004C004000127A0080B582B0AA
:101F300000AF78607B685B6A012213400BD07B683E
:101F40001B685B684A4A134019007B689A6A7B6881
:101F50001B680A435A607B685B6A022213400BD0FD
:101F60007B681B685B68434A134019007B68DA6A28
:101F70007B681B680A435A607B685B6A04221340D3
:101F80000BD07B681B685B683B4A134019007B6879
:101F90001A6B7B681B680A435A607B685B6A08227D
:101FA00013400BD07B681B685B68344A13401900F0
:101FB0007B685A6B7B681B680A435A607B685B6A64
:101FC000102213400BD07B681B689B682C4A13407F
:101FD00019007B689A6B7B681B680A439A607B6870
:101FE0005B6A202213400BD07B681B689B68254AE4
:101FF000134019007B68DA6B7B681B680A439A60A0
:102000007B685B6A402213401DD07B681B685B685D
:102010001D4A134019007B681A6C7B681B680A43D1
:102020005A607B681A6C80235B039A420BD17B68F1
:102030001B685B68154A134019007B685A6C7B6803
:102040001B680A435A607B685B6A802213400BD08E
:102050007B681B685B680E4A134019007B689A6CAA
:102060007B681B680A435A60C046BD4602B080BD0B
:10207000FFFFFDFFFFFFFEFFFFFFFBFFFF7FFFFFF7
:10208000FFEFFFFFFFDFFFFFFFFFEFFFFFFF9FFF00
:10209000FFFFF7FF80B586B002AF78607B688022D3
:1020A0000021995000F05CF90300FB607B681B681D
:1020B0001B6808221340082B0CD1FB688022910377
:1020C0007868174A0092002200F02CF8031E01D015
:1020D000032321E07B681B681B6804221340042B48
:1020E0000CD1FB688022D10378680D4A009200224F
:1020F00000F018F8031E01D003230DE07B682022B6
:102100009A677B682022DA677B6800221A667B6800
:1021100074220021995400231800BD4604B080BDEC
:10212000FFFFFF0180B594B000AFF860B9603B607D
:10213000FB1D1A70A3E0BB6D013300D19FE000F0DE
:102140000FF902003B68D31ABA6D9A4202D3BB6DF5
:10215000002B3DD1EFF31083BB62BB6A7B6401238C
:10216000FB62FB6A83F31088C046FB681B681A6831
:10217000FB681B684C490A401A607B6C3B633B6BF5
:1021800083F31088C046EFF310837B637B6B3B6463
:102190000123BB63BB6B83F31088C046FB681B68DD
:1021A0009A68FB681B6801218A439A603B6CFB6359
:1021B000FB6B83F31088C046FB6820229A67FB689C
:1021C0002022DA67FB68742200219954032367E018
:1021D000FB681B681B680422134050D0FB681B6817
:1021E000DA6980231B011A4080231B019A4246D1E1
:1021F000FB681B68802212011A62EFF310833B61B7
:102200003B69FB6401237B617B6983F31088C046D3
:10221000FB681B681A68FB681B6823490A401A6040
:10222000FB6CBB61BB6983F31088C046EFF310837E
:10223000FB61FB69BB6401233B623B6A83F310884B
:10224000C046FB681B689A68FB681B6801218A43CB
:102250009A60BB6C7B627B6A83F31088C046FB6824
:1022600020229A67FB682022DA67FB6880222021FF
:102270009950FB68742200219954032310E0FB68F5
:102280001B68DB69BA681340BA68D31A5A425341D3
:10229000DBB21A00FB1D1B789A4200D14BE70023EA
:1022A0001800BD4614B080BD5FFEFFFF80B500AFD3
:1022B000074B1A68064B10210A431A60002000F0F1
:1022C00009F8FEF733F900231800BD4680BDC0466B
:1022D0000020024090B583B000AF7860144B1C68BA
:1022E000144B1B781900FA239800FDF70DFF03002B
:1022F00019002000FDF708FF03001800FEF7C1FADF
:10230000031E01D001230FE07B68032B0BD87968F3
:1023100001235B4200221800FEF79EFA064B7A6802
:102320001A60002300E001231800BD4603B090BDF1
:1023300008000020100000200C00002080B500AF35
:10234000054B1B781A00054B1B68D218034B1A600B
:10235000C046BD4680BDC0461000002000010020E0
:1023600080B500AF024B1B681800BD4680BDC0465B
:102370000001002080B584B000AF7860FFF7F0FF67
:102380000300BB607B68FB60FB68013305D00A4B30
:102390001B781A00FB689B18FB60C046FFF7E0FF44
:1023A0000200BB68D31AFA689A42F7D8C046C04602
:1023B000BD4604B080BDC0461000002070B50026A8
:1023C0000C4D0D4C641BA410A64209D1002600F050
:1023D00021F80A4D0A4C641BA410A64205D170BD19
:1023E000B300EB5898470136EEE7B300EB58984737
:1023F0000136F2E78C2400088C2400088C240008A5
:102400009024000803008218934200D1704719708D
:102410000133F9E7F8B5C046F8BC08BC9E467047E2
:0C242000F8B5C046F8BC08BC9E467047EA
:10242C004C6564205377697463686564204F464635
:10243C000A0000004C656420537769746368656416
:10244C00204F4E0A0000000002030405060708098D
:10245C000A0B0C0D0E0F10100102030405060708E1
:10246C00090A0B0C0D0E0F100000000000000000FC
:10247C00010203040607080900000000010203041E
:04248C00E90000085B
:04249000C10000087F
:102494002C2400084024000800127A0004000000E4
:0424A4000100000033
:04000005080006E108
:00000001FF
